{
  "_format": "hh-sol-artifact-1",
  "contractName": "MemeData",
  "sourceName": "contracts/MemeData.sol",
  "abi": [
    {
      "inputs": [
        {
          "internalType": "string",
          "name": "name",
          "type": "string"
        },
        {
          "internalType": "string",
          "name": "IPFSuri",
          "type": "string"
        },
        {
          "internalType": "uint256",
          "name": "price",
          "type": "uint256"
        }
      ],
      "name": "createMeme",
      "outputs": [
        {
          "internalType": "uint256",
          "name": "",
          "type": "uint256"
        }
      ],
      "stateMutability": "nonpayable",
      "type": "function"
    },
    {
      "inputs": [],
      "name": "getAllMemes",
      "outputs": [
        {
          "components": [
            {
              "internalType": "uint256",
              "name": "id",
              "type": "uint256"
            },
            {
              "internalType": "string",
              "name": "name",
              "type": "string"
            },
            {
              "internalType": "string",
              "name": "IPFSuri",
              "type": "string"
            },
            {
              "internalType": "uint256",
              "name": "price",
              "type": "uint256"
            },
            {
              "internalType": "address",
              "name": "owner",
              "type": "address"
            }
          ],
          "internalType": "struct MemeData.Meme[]",
          "name": "",
          "type": "tuple[]"
        }
      ],
      "stateMutability": "view",
      "type": "function"
    },
    {
      "inputs": [
        {
          "internalType": "uint256",
          "name": "memeId",
          "type": "uint256"
        }
      ],
      "name": "getMeme",
      "outputs": [
        {
          "components": [
            {
              "internalType": "uint256",
              "name": "id",
              "type": "uint256"
            },
            {
              "internalType": "string",
              "name": "name",
              "type": "string"
            },
            {
              "internalType": "string",
              "name": "IPFSuri",
              "type": "string"
            },
            {
              "internalType": "uint256",
              "name": "price",
              "type": "uint256"
            },
            {
              "internalType": "address",
              "name": "owner",
              "type": "address"
            }
          ],
          "internalType": "struct MemeData.Meme",
          "name": "",
          "type": "tuple"
        }
      ],
      "stateMutability": "view",
      "type": "function"
    }
  ],
  "bytecode": "0x608060405234801561001057600080fd5b50610f44806100206000396000f3fe608060405234801561001057600080fd5b50600436106100415760003560e01c8063145e4e8c146100465780633dea6b9a14610076578063565dcaa8146100a6575b600080fd5b610060600480360381019061005b91906107a5565b6100c4565b60405161006d919061083f565b60405180910390f35b610090600480360381019061008b919061085a565b6101c9565b60405161009d91906109d3565b60405180910390f35b6100ae610383565b6040516100bb9190610b34565b60405180910390f35b60008060015490506040518060a001604052808281526020018681526020018581526020018481526020013373ffffffffffffffffffffffffffffffffffffffff1681525060008083815260200190815260200160002060008201518160000155602082015181600101908161013a9190610d62565b5060408201518160020190816101509190610d62565b506060820151816003015560808201518160040160006101000a81548173ffffffffffffffffffffffffffffffffffffffff021916908373ffffffffffffffffffffffffffffffffffffffff16021790555090505060018060008282546101b79190610e63565b92505081905550809150509392505050565b6101d16105d0565b6000808381526020019081526020016000206040518060a00160405290816000820154815260200160018201805461020890610b85565b80601f016020809104026020016040519081016040528092919081815260200182805461023490610b85565b80156102815780601f1061025657610100808354040283529160200191610281565b820191906000526020600020905b81548152906001019060200180831161026457829003601f168201915b5050505050815260200160028201805461029a90610b85565b80601f01602080910402602001604051908101604052809291908181526020018280546102c690610b85565b80156103135780601f106102e857610100808354040283529160200191610313565b820191906000526020600020905b8154815290600101906020018083116102f657829003601f168201915b50505050508152602001600382015481526020016004820160009054906101000a900473ffffffffffffffffffffffffffffffffffffffff1673ffffffffffffffffffffffffffffffffffffffff1673ffffffffffffffffffffffffffffffffffffffff16815250509050919050565b6060600060015467ffffffffffffffff8111156103a3576103a2610644565b5b6040519080825280602002602001820160405280156103dc57816020015b6103c96105d0565b8152602001906001900390816103c15790505b50905060005b6001548110156105c8576000808281526020019081526020016000206040518060a00160405290816000820154815260200160018201805461042390610b85565b80601f016020809104026020016040519081016040528092919081815260200182805461044f90610b85565b801561049c5780601f106104715761010080835404028352916020019161049c565b820191906000526020600020905b81548152906001019060200180831161047f57829003601f168201915b505050505081526020016002820180546104b590610b85565b80601f01602080910402602001604051908101604052809291908181526020018280546104e190610b85565b801561052e5780601f106105035761010080835404028352916020019161052e565b820191906000526020600020905b81548152906001019060200180831161051157829003601f168201915b50505050508152602001600382015481526020016004820160009054906101000a900473ffffffffffffffffffffffffffffffffffffffff1673ffffffffffffffffffffffffffffffffffffffff1673ffffffffffffffffffffffffffffffffffffffff16815250508282815181106105aa576105a9610e97565b5b602002602001018190525080806105c090610ec6565b9150506103e2565b508091505090565b6040518060a0016040528060008152602001606081526020016060815260200160008152602001600073ffffffffffffffffffffffffffffffffffffffff1681525090565b6000604051905090565b600080fd5b600080fd5b600080fd5b600080fd5b6000601f19601f8301169050919050565b7f4e487b7100000000000000000000000000000000000000000000000000000000600052604160045260246000fd5b61067c82610633565b810181811067ffffffffffffffff8211171561069b5761069a610644565b5b80604052505050565b60006106ae610615565b90506106ba8282610673565b919050565b600067ffffffffffffffff8211156106da576106d9610644565b5b6106e382610633565b9050602081019050919050565b82818337600083830152505050565b600061071261070d846106bf565b6106a4565b90508281526020810184848401111561072e5761072d61062e565b5b6107398482856106f0565b509392505050565b600082601f83011261075657610755610629565b5b81356107668482602086016106ff565b91505092915050565b6000819050919050565b6107828161076f565b811461078d57600080fd5b50565b60008135905061079f81610779565b92915050565b6000806000606084860312156107be576107bd61061f565b5b600084013567ffffffffffffffff8111156107dc576107db610624565b5b6107e886828701610741565b935050602084013567ffffffffffffffff81111561080957610808610624565b5b61081586828701610741565b925050604061082686828701610790565b9150509250925092565b6108398161076f565b82525050565b60006020820190506108546000830184610830565b92915050565b6000602082840312156108705761086f61061f565b5b600061087e84828501610790565b91505092915050565b6108908161076f565b82525050565b600081519050919050565b600082825260208201905092915050565b60005b838110156108d05780820151818401526020810190506108b5565b60008484015250505050565b60006108e782610896565b6108f181856108a1565b93506109018185602086016108b2565b61090a81610633565b840191505092915050565b600073ffffffffffffffffffffffffffffffffffffffff82169050919050565b600061094082610915565b9050919050565b61095081610935565b82525050565b600060a08301600083015161096e6000860182610887565b506020830151848203602086015261098682826108dc565b915050604083015184820360408601526109a082826108dc565b91505060608301516109b56060860182610887565b5060808301516109c86080860182610947565b508091505092915050565b600060208201905081810360008301526109ed8184610956565b905092915050565b600081519050919050565b600082825260208201905092915050565b6000819050602082019050919050565b600060a083016000830151610a396000860182610887565b5060208301518482036020860152610a5182826108dc565b91505060408301518482036040860152610a6b82826108dc565b9150506060830151610a806060860182610887565b506080830151610a936080860182610947565b508091505092915050565b6000610aaa8383610a21565b905092915050565b6000602082019050919050565b6000610aca826109f5565b610ad48185610a00565b935083602082028501610ae685610a11565b8060005b85811015610b225784840389528151610b038582610a9e565b9450610b0e83610ab2565b925060208a01995050600181019050610aea565b50829750879550505050505092915050565b60006020820190508181036000830152610b4e8184610abf565b905092915050565b7f4e487b7100000000000000000000000000000000000000000000000000000000600052602260045260246000fd5b60006002820490506001821680610b9d57607f821691505b602082108103610bb057610baf610b56565b5b50919050565b60008190508160005260206000209050919050565b60006020601f8301049050919050565b600082821b905092915050565b600060088302610c187fffffffffffffffffffffffffffffffffffffffffffffffffffffffffffffffff82610bdb565b610c228683610bdb565b95508019841693508086168417925050509392505050565b6000819050919050565b6000610c5f610c5a610c558461076f565b610c3a565b61076f565b9050919050565b6000819050919050565b610c7983610c44565b610c8d610c8582610c66565b848454610be8565b825550505050565b600090565b610ca2610c95565b610cad818484610c70565b505050565b5b81811015610cd157610cc6600082610c9a565b600181019050610cb3565b5050565b601f821115610d1657610ce781610bb6565b610cf084610bcb565b81016020851015610cff578190505b610d13610d0b85610bcb565b830182610cb2565b50505b505050565b600082821c905092915050565b6000610d3960001984600802610d1b565b1980831691505092915050565b6000610d528383610d28565b9150826002028217905092915050565b610d6b82610896565b67ffffffffffffffff811115610d8457610d83610644565b5b610d8e8254610b85565b610d99828285610cd5565b600060209050601f831160018114610dcc5760008415610dba578287015190505b610dc48582610d46565b865550610e2c565b601f198416610dda86610bb6565b60005b82811015610e0257848901518255600182019150602085019450602081019050610ddd565b86831015610e1f5784890151610e1b601f891682610d28565b8355505b6001600288020188555050505b505050505050565b7f4e487b7100000000000000000000000000000000000000000000000000000000600052601160045260246000fd5b6000610e6e8261076f565b9150610e798361076f565b9250828201905080821115610e9157610e90610e34565b5b92915050565b7f4e487b7100000000000000000000000000000000000000000000000000000000600052603260045260246000fd5b6000610ed18261076f565b91507fffffffffffffffffffffffffffffffffffffffffffffffffffffffffffffffff8203610f0357610f02610e34565b5b60018201905091905056fea264697066735822122086340673f9610c704913453e3d5bec9542573f0267c65d8a7bbbae62f6b793ae64736f6c63430008140033",
  "linkReferences": {},
  "deployedLinkReferences": {}
}