{
  "_format": "hh-sol-artifact-1",
  "contractName": "MemeData",
  "sourceName": "contracts/MemeData.sol",
  "abi": [
    {
      "inputs": [
        {
          "internalType": "string",
          "name": "name",
          "type": "string"
        },
        {
          "internalType": "string",
          "name": "IPFSuri",
          "type": "string"
        }
      ],
      "name": "createMeme",
      "outputs": [
        {
          "internalType": "uint256",
          "name": "",
          "type": "uint256"
        }
      ],
      "stateMutability": "nonpayable",
      "type": "function"
    },
    {
      "inputs": [],
      "name": "getAllMemes",
      "outputs": [
        {
          "components": [
            {
              "internalType": "uint256",
              "name": "id",
              "type": "uint256"
            },
            {
              "internalType": "string",
              "name": "name",
              "type": "string"
            },
            {
              "internalType": "string",
              "name": "IPFSuri",
              "type": "string"
            },
            {
              "internalType": "uint256",
              "name": "price",
              "type": "uint256"
            },
            {
              "internalType": "address",
              "name": "owner",
              "type": "address"
            }
          ],
          "internalType": "struct MemeData.Meme[]",
          "name": "",
          "type": "tuple[]"
        }
      ],
      "stateMutability": "view",
      "type": "function"
    },
    {
      "inputs": [
        {
          "internalType": "uint256",
          "name": "memeId",
          "type": "uint256"
        }
      ],
      "name": "getMeme",
      "outputs": [
        {
          "components": [
            {
              "internalType": "uint256",
              "name": "id",
              "type": "uint256"
            },
            {
              "internalType": "string",
              "name": "name",
              "type": "string"
            },
            {
              "internalType": "string",
              "name": "IPFSuri",
              "type": "string"
            },
            {
              "internalType": "uint256",
              "name": "price",
              "type": "uint256"
            },
            {
              "internalType": "address",
              "name": "owner",
              "type": "address"
            }
          ],
          "internalType": "struct MemeData.Meme",
          "name": "",
          "type": "tuple"
        }
      ],
      "stateMutability": "view",
      "type": "function"
    }
  ],
  "bytecode": "0x608060405234801561001057600080fd5b50610f31806100206000396000f3fe608060405234801561001057600080fd5b50600436106100415760003560e01c80633dea6b9a14610046578063565dcaa814610076578063e3ec39c914610094575b600080fd5b610060600480360381019061005b919061065f565b6100c4565b60405161006d91906107e9565b60405180910390f35b61007e61027e565b60405161008b919061094a565b60405180910390f35b6100ae60048036038101906100a99190610aa1565b6104cb565b6040516100bb9190610b28565b60405180910390f35b6100cc6105d0565b6000808381526020019081526020016000206040518060a00160405290816000820154815260200160018201805461010390610b72565b80601f016020809104026020016040519081016040528092919081815260200182805461012f90610b72565b801561017c5780601f106101515761010080835404028352916020019161017c565b820191906000526020600020905b81548152906001019060200180831161015f57829003601f168201915b5050505050815260200160028201805461019590610b72565b80601f01602080910402602001604051908101604052809291908181526020018280546101c190610b72565b801561020e5780601f106101e35761010080835404028352916020019161020e565b820191906000526020600020905b8154815290600101906020018083116101f157829003601f168201915b50505050508152602001600382015481526020016004820160009054906101000a900473ffffffffffffffffffffffffffffffffffffffff1673ffffffffffffffffffffffffffffffffffffffff1673ffffffffffffffffffffffffffffffffffffffff16815250509050919050565b6060600060015467ffffffffffffffff81111561029e5761029d610976565b5b6040519080825280602002602001820160405280156102d757816020015b6102c46105d0565b8152602001906001900390816102bc5790505b50905060005b6001548110156104c3576000808281526020019081526020016000206040518060a00160405290816000820154815260200160018201805461031e90610b72565b80601f016020809104026020016040519081016040528092919081815260200182805461034a90610b72565b80156103975780601f1061036c57610100808354040283529160200191610397565b820191906000526020600020905b81548152906001019060200180831161037a57829003601f168201915b505050505081526020016002820180546103b090610b72565b80601f01602080910402602001604051908101604052809291908181526020018280546103dc90610b72565b80156104295780601f106103fe57610100808354040283529160200191610429565b820191906000526020600020905b81548152906001019060200180831161040c57829003601f168201915b50505050508152602001600382015481526020016004820160009054906101000a900473ffffffffffffffffffffffffffffffffffffffff1673ffffffffffffffffffffffffffffffffffffffff1673ffffffffffffffffffffffffffffffffffffffff16815250508282815181106104a5576104a4610ba3565b5b602002602001018190525080806104bb90610c01565b9150506102dd565b508091505090565b60008060015490506040518060a00160405280828152602001858152602001848152602001600081526020013373ffffffffffffffffffffffffffffffffffffffff168152506000808381526020019081526020016000206000820151816000015560208201518160010190816105429190610df5565b5060408201518160020190816105589190610df5565b506060820151816003015560808201518160040160006101000a81548173ffffffffffffffffffffffffffffffffffffffff021916908373ffffffffffffffffffffffffffffffffffffffff16021790555090505060018060008282546105bf9190610ec7565b925050819055508091505092915050565b6040518060a0016040528060008152602001606081526020016060815260200160008152602001600073ffffffffffffffffffffffffffffffffffffffff1681525090565b6000604051905090565b600080fd5b600080fd5b6000819050919050565b61063c81610629565b811461064757600080fd5b50565b60008135905061065981610633565b92915050565b6000602082840312156106755761067461061f565b5b60006106838482850161064a565b91505092915050565b61069581610629565b82525050565b600081519050919050565b600082825260208201905092915050565b60005b838110156106d55780820151818401526020810190506106ba565b60008484015250505050565b6000601f19601f8301169050919050565b60006106fd8261069b565b61070781856106a6565b93506107178185602086016106b7565b610720816106e1565b840191505092915050565b600073ffffffffffffffffffffffffffffffffffffffff82169050919050565b60006107568261072b565b9050919050565b6107668161074b565b82525050565b600060a083016000830151610784600086018261068c565b506020830151848203602086015261079c82826106f2565b915050604083015184820360408601526107b682826106f2565b91505060608301516107cb606086018261068c565b5060808301516107de608086018261075d565b508091505092915050565b60006020820190508181036000830152610803818461076c565b905092915050565b600081519050919050565b600082825260208201905092915050565b6000819050602082019050919050565b600060a08301600083015161084f600086018261068c565b506020830151848203602086015261086782826106f2565b9150506040830151848203604086015261088182826106f2565b9150506060830151610896606086018261068c565b5060808301516108a9608086018261075d565b508091505092915050565b60006108c08383610837565b905092915050565b6000602082019050919050565b60006108e08261080b565b6108ea8185610816565b9350836020820285016108fc85610827565b8060005b85811015610938578484038952815161091985826108b4565b9450610924836108c8565b925060208a01995050600181019050610900565b50829750879550505050505092915050565b6000602082019050818103600083015261096481846108d5565b905092915050565b600080fd5b600080fd5b7f4e487b7100000000000000000000000000000000000000000000000000000000600052604160045260246000fd5b6109ae826106e1565b810181811067ffffffffffffffff821117156109cd576109cc610976565b5b80604052505050565b60006109e0610615565b90506109ec82826109a5565b919050565b600067ffffffffffffffff821115610a0c57610a0b610976565b5b610a15826106e1565b9050602081019050919050565b82818337600083830152505050565b6000610a44610a3f846109f1565b6109d6565b905082815260208101848484011115610a6057610a5f610971565b5b610a6b848285610a22565b509392505050565b600082601f830112610a8857610a8761096c565b5b8135610a98848260208601610a31565b91505092915050565b60008060408385031215610ab857610ab761061f565b5b600083013567ffffffffffffffff811115610ad657610ad5610624565b5b610ae285828601610a73565b925050602083013567ffffffffffffffff811115610b0357610b02610624565b5b610b0f85828601610a73565b9150509250929050565b610b2281610629565b82525050565b6000602082019050610b3d6000830184610b19565b92915050565b7f4e487b7100000000000000000000000000000000000000000000000000000000600052602260045260246000fd5b60006002820490506001821680610b8a57607f821691505b602082108103610b9d57610b9c610b43565b5b50919050565b7f4e487b7100000000000000000000000000000000000000000000000000000000600052603260045260246000fd5b7f4e487b7100000000000000000000000000000000000000000000000000000000600052601160045260246000fd5b6000610c0c82610629565b91507fffffffffffffffffffffffffffffffffffffffffffffffffffffffffffffffff8203610c3e57610c3d610bd2565b5b600182019050919050565b60008190508160005260206000209050919050565b60006020601f8301049050919050565b600082821b905092915050565b600060088302610cab7fffffffffffffffffffffffffffffffffffffffffffffffffffffffffffffffff82610c6e565b610cb58683610c6e565b95508019841693508086168417925050509392505050565b6000819050919050565b6000610cf2610ced610ce884610629565b610ccd565b610629565b9050919050565b6000819050919050565b610d0c83610cd7565b610d20610d1882610cf9565b848454610c7b565b825550505050565b600090565b610d35610d28565b610d40818484610d03565b505050565b5b81811015610d6457610d59600082610d2d565b600181019050610d46565b5050565b601f821115610da957610d7a81610c49565b610d8384610c5e565b81016020851015610d92578190505b610da6610d9e85610c5e565b830182610d45565b50505b505050565b600082821c905092915050565b6000610dcc60001984600802610dae565b1980831691505092915050565b6000610de58383610dbb565b9150826002028217905092915050565b610dfe8261069b565b67ffffffffffffffff811115610e1757610e16610976565b5b610e218254610b72565b610e2c828285610d68565b600060209050601f831160018114610e5f5760008415610e4d578287015190505b610e578582610dd9565b865550610ebf565b601f198416610e6d86610c49565b60005b82811015610e9557848901518255600182019150602085019450602081019050610e70565b86831015610eb25784890151610eae601f891682610dbb565b8355505b6001600288020188555050505b505050505050565b6000610ed282610629565b9150610edd83610629565b9250828201905080821115610ef557610ef4610bd2565b5b9291505056fea2646970667358221220cc1b779e134ed1ccec85d777b477cd1d7cfaf6f075a62bb4932b3c448aa8ce3c64736f6c63430008140033",
  "linkReferences": {},
  "deployedLinkReferences": {}
}